:020000020000FC
:100000000C9447000C9446000C9446000C94460057
:100010000C9446000C9446000C9446000C94460048
:100020000C9446000C9446000C9446000C94460038
:100030000C9446000C9446000C9446000C94460028
:100040000C9446000C9446000C9446000C94460018
:100050000C9486000C9446000C9446000C944600C8
:100060000C9446000C9446000C9446000C944600F8
:100070000C9446000C9446000C9446000C944600E8
:100080000C9446000C9446000C94460018951124DC
:100090001FBE1FE01EBF0FEF0DBF00E205BFD09ACD
:1000A000D19AD29A599A539A00E109B900E0009383
:1000B0009000789410920002009100040395009340
:1000C000000403D020D08895FECF102F137010307D
:1000D00021F4D898D99ADA9A0895113021F4D89A4F
:1000E000D998DA9A0895123021F4D89AD99ADA98E0
:1000F0000895133021F4D898D99ADA980895D898A9
:10010000D998DA980895569A0CB90895569800EF40
:040110000CB9189579
:00000001FF
