:100000000C9449000C9474050C947E050C9488059E
:100010000C9492050C949C050C94A6050C949907DD
:100020000C94B0050C9468000C9468000C94F312C6
:100030000C949B090C943E050C9454050C94BA0541
:100040000C942D050C94CF0B0C9468000C94680054
:100050000C9468000C9468000C9468000C94680080
:100060000C9449050C9468000C9468000C9468008A
:100070000C9468000C9468000C9468000C94680060
:100080000C9468000C9468000C94680000081C181C
:10009000141011241FBECFEFD0E1DEBFCDBF11E0A1
:1000A000A0E0B1E0E0E6FDE200E00BBF02C0079097
:1000B0000D92AC30B107D9F711E0ACE0B1E001C06E
:1000C0001D92AA3FB107E1F70E943E110C94AF16B2
:1000D0000C9400008FB7F894992708958FBF089566
:1000E000FC0182819927582F442781819927482B29
:1000F000592BCA01892F9927869586958370907010
:100100008230910559F08330910559F0892B19F40B
:1001100020E030E008C02CE93FEF05C022E030E0ED
:1001200002C028E030E0CA0184E0989F812D992721
:1001300011248230910559F08330910559F0892BB3
:1001400019F480E090E008C08CE99FEF05C082E0E0
:1001500090E002C088E090E0280F391F2A5F3F4FEF
:10016000CF01820F931F0895282F9FB7F89466231D
:1001700049F0E82FFF27EF57FE4F8081882311F0C9
:1001800021E006C0E22FFF27EF57FE4F608320E0FB
:10019000892F99278FBF822F99270895E82F8FB72E
:1001A000F894282F332790E0FF27EF57FE4F8081E8
:1001B000861709F491E02FBF892F99270895882386
:1001C00011F06E9A08956E980895882311F06F9A31
:1001D00008956F98089580E00E94DF00BA9ABB9856
:1001E000B99AB89A6C9A80E00E94E5006B986A9878
:1001F00081E00E94DF00709A8DB18C7F8DB90895E7
:100200000F931F93CF93DF93182F8FB7F894C82FB6
:10021000DD270C2F61E080E00E94B400882321F0EC
:10022000CFBF85E090E024C0809105018823A1F430
:1002300080911101823081F409C082E08093110124
:10024000109205010E94EB00B89AC0981093020129
:1002500080E00FBF99270CC080911101882369F3BA
:100260008FB7F8949927109281018FBF81E0F1CF69
:10027000DF91CF911F910F910895282F9FB7F89488
:10028000E82FFF27EB5CFE4F80818F3F81F4E091E8
:10029000F801E21771F40BC02093EB0104C0FF27B3
:1002A000EB5CFE4F20832093F80120E007C025E09F
:1002B00005C08091EB018F3F91F7EECF892F9927F1
:1002C0008FBF822F992708951F93182F81E00E94D6
:1002D000DF001FB9779BFECF8FB199271F9108953B
:1002E000FF920F931F93CF93DF93F82E8B018FB75D
:1002F000F894C82FDD2760E080E00E94CE008823BC
:1003000021F0CFBF80E090E00CC0CFBF8F2D0E94C6
:100310006401812F99270E946401802F0E9464014B
:100320009927DF91CF911F910F91FF9008958F92A0
:100330009F92AF92BF92CF92DF92EF92FF920F9374
:100340001F93CF93DF938FB7F8949927C090F30151
:10035000D090F40180907A0190907B01C0916D0162
:10036000D0916E0120911A0130911B01FAE0AF2E5D
:10037000B12CAC0EBD1E2A153B0508F459018FBFE8
:100380007401EC0EFD1E86010C0F1D1F14C0C1145C
:10039000D10419F0F801808101C080E00E9464015D
:1003A0008114910411F0F701808321960894E11CD7
:1003B000F11C0F5F1F4FC5010197C817D90738F30C
:1003C00081E00E94E5009FB7F894C114D10431F098
:1003D000CC0EDD1EF60180818FB901C01FB8D0930D
:1003E0006E01C0936D01892F99278FBF80E090E047
:1003F000DF91CF911F910F91FF90EF90DF90CF9001
:10040000BF90AF909F908F9008952FB7F8943327A7
:1004100050931B0140931A019093F4018093F301D0
:1004200070937B0160937A0110926E0110926D01BE
:100430002FBF452B29F08FB10E949701992708956E
:1004400087E00E943D0180E090E008958FB7F89426
:100450009927109283018FBF08957FB7F89462B7F0
:1004600020911D0130911E0140911F0150912001EA
:1004700006B601FE0FC081B792B7280F311D411D8E
:10048000511D2F5F3F4F4F4F5F4F290F311D411DB2
:10049000511D04C0260F311D411D511D872F992765
:1004A0008FBFCA01B9010895EF92FF920F931F9376
:1004B000E0917901E1FF2BC020917101309172012F
:1004C0004091730150917401E0907501F0907601B4
:1004D0000091770110917801621B730B840B950BCF
:1004E0006E157F058007910790F0E0FF04C0ED7F57
:1004F000E09379010CC02E0D3F1D401F511F20932A
:1005000071013093720140937301509374018BE039
:100510000E943D011F910F91FF90EF900895DF928F
:10052000EF92FF920F931F938FB7F894282F3327E2
:10053000D22E91B782B746B7981711F041FF02C08B
:100540002FBF6AC080916C018823E1F10E942D02C7
:10055000E0907D01F0907E0100917F01109180017B
:1005600020912F01309130014091310150913201A1
:100570006E197F09800B910B62177307840795072B
:1005800020F010926C0171E01EC02E0D3F1D401F27
:10059000511F80911D0190911E01A0911F01B091EA
:1005A0002001281B390B4A0B5B0B273E3105410507
:1005B000510540F4822F223010F070E005C070E049
:1005C00082E002C070E086EE682F615000B601FC48
:1005D000FDCF82B7681709F46F5F20911D0130913C
:1005E0001E0140911F0150912001DA01C9010196BD
:1005F000A11DB11D860F911DA11DB11D821793076D
:10060000A407B50710F4622F609561BFDFBE7723A2
:1006100019F08AE00E943D011F910F91FF90EF9029
:10062000DF900895AFB7F894BB27E1E0E0936C0149
:1006300060937D0170937E0180937F019093800190
:1006400020932F01309330014093310150933201B8
:10065000AFBF0E948F02089580E88093330110920B
:100660004C011092EE011092EA0110924801089597
:10067000CF93DF93FC0115A6DC019E96ED011B8252
:100680001A82198280E886A7DF91CF9108952F9270
:100690003F924F925F926F927F928F929F92AF9212
:1006A000BF92CF92DF92EF92FF920F931F93CF935F
:1006B000DF93CDB7DEB728970FB6F894DEBF0FBE35
:1006C000CDBF209052013090530140905401509082
:1006D00055016624772488241EE4A12EB3E8BB2E9E
:1006E000CC24DD24EE24FF2400E010E0222D332D65
:1006F000442D552D662D772D882D90E00E94911464
:1007000029833A834B835C836D837E838F839887B1
:10071000822E932EA42EB52E2401350100E20E94D4
:100720008F15A22EB32EC42ED52EC301B2019695DD
:100730008795779567956A0D7B1D8C1D9D1D97FF8D
:1007400005C09F776F5F7F4F8F4F9F4F6093520120
:1007500070935301809354019093550128960FB6DE
:10076000F894DEBF0FBECDBFDF91CF911F910F91E7
:10077000FF90EF90DF90CF90BF90AF909F908F90C1
:100780007F906F905F904F903F902F9008958FB71C
:10079000F89460916F01709170012CB53DB506B66B
:1007A00002FE04C06F5F7F4F2CB53DB599278FBF08
:1007B00088279927CB017727662744275527622B5F
:1007C000732B842B952B0895EF92FF920F931F9319
:1007D0000E94C7037B018C0120915C0130915D0177
:1007E00040915E0150915F018091570190915801B5
:1007F000A0915901B0915A01820F931FA41FB51FF8
:10080000E216F3060407150730F082179307A407D2
:10081000B50758F005C082179307A407B507E0F5A0
:10082000E816F9060A071B07B8F59C01AD012E1959
:100830003F09400B510B213060E8360760E0460766
:1008400060E0560768F180E090E8A0E0B0E0E80ED4
:10085000F91E0A1F1B1FE0925C01F0925D010093DC
:100860005E0110935F0180E090E8AFEFBFEFE80E0C
:10087000F91E0A1F1B1F2050304840405040209353
:100880005701309358014093590150935A0120E089
:1008900030E840E050E014C020E030E040E050E0BC
:1008A00080935C0190935D01A0935E01B0935F0122
:1008B00010925701109258011092590110925A014A
:1008C000A901B7012CB53DB5C9018E199F09039641
:1008D0008417950720F0B9016D5F7F4F02C0640F48
:1008E000751F6115710511F461E070E06150704091
:1008F0007BBD6ABD80E186BF87B7806187BF1F91DE
:100900000F91FF90EF9008950F931F930FB7F894F6
:10091000112760935C0170935D0180935E01909359
:100920005F01209357013093580140935901509330
:100930005A010E94E4030FBF1F910F9108958FB7D2
:10094000F894992760918F018FBF85E0689FB0016F
:100950001124625D7E4F706488E10E9470010895E9
:100960001F931FB7F89480914701882319F460E022
:1009700070E009C060E08091F201882309F461E031
:1009800081E06827772780914F01882319F480E060
:1009900090E00AC090E080918601882309F491E0FC
:1009A00081E09827892F9927762F6627770F770F71
:1009B000770F54E0880F991F5A95E1F7826E926283
:1009C000682B792B81E10E947001812F99278FBFBD
:1009D0001F91089597B79F7D97BF90E296BF882398
:1009E00019F08EB5806402C08EB58F7B8EBD87B73F
:1009F000806287BF80E090E00895AF92BF92CF926F
:100A0000DF92EF92FF920F931F93CF93DF93CDB7B7
:100A1000DEB728970FB6F894DEBF0FBECDBF20E03B
:100A200070E0E0910001F091010132E14DE65CE4FB
:100A30006FE4809101019E2F28960FB6F894DEBFD7
:100A40000FBECDBFDF91CF911F910F91FF90EF901F
:100A5000DF90CF90BF90AF9008951F920F920FB686
:100A60000F9211248F9383B783BF00B600FCFDCF94
:100A70008F910F900FBE0F901F90189578941F9232
:100A80000F920FB60F9211240F900FBE0F901F9070
:100A9000189578941F920F920FB60F9211240F9011
:100AA0000FBE0F901F90189578941F920F920FB65B
:100AB0000F9211242F933F938F939F932FB7F89406
:100AC000332780916F01909170010196909370018E
:100AD00080936F012FBF9F918F913F912F910F9026
:100AE0000FBE0F901F9018951F920F920FB60F9286
:100AF00011240F900FBE0F901F9018951F920F9208
:100B00000FB60F9211240F900FBE0F901F901895E3
:100B10001F920F920FB60F9211240F900FBE0F90DD
:100B20001F9018951F920F920FB60F9211240F90DD
:100B30000FBE0F901F9018951F920F920FB60F9235
:100B400011240F900FBE0F901F9018951F920F92B7
:100B50000FB60F9211240F900FBE0F901F90189593
:100B60001F920F920FB60F9211240F900FBE0F908D
:100B70001F9018951F920F920FB60F9211242F936A
:100B80003F934F935F936F937F938F939F93AF9315
:100B9000BF93EF93FF9383B783BF00B600FCFDCFF5
:100BA00081B799270196AA27BB2720911D01309173
:100BB0001E0140911F0150912001280F391F4A1F2B
:100BC0005B1F20931D0130931E0140931F01509322
:100BD000200178940E948F02FF91EF91BF91AF9115
:100BE0009F918F917F916F915F914F913F912F9145
:100BF0000F900FBE0F901F9018950F931F93182FF3
:100C00000FB7F89461E080E00E94B400882371F58A
:100C100010930201809105018823A9F580911101AB
:100C2000823089F586E00CC00E94EB0080911101B2
:100C3000882349F481E0809311011092490188E0F2
:100C40000E943D012AC080915B018F3F31F5E09108
:100C50000401EE2311F11CC01092030104C0FF2710
:100C6000E55AFE4F10821092040117C081E090E017
:100C700002C0880F991F1A95E2F720911001282BC6
:100C8000209310010AC0809111018823E1F6CCCF96
:100C9000809103018F3F19F7DFCF802F99278FBFF6
:100CA00080E090E01F910F9108951F9383E00E94D0
:100CB00000019927182F882319F083E00E94FD0571
:100CC000812F99271F910895EF92FF921F93CF9341
:100CD000DF93E0905001F0905101F70182A5992730
:100CE000182F882309F41FE1C098809146018117CD
:100CF00049F0612F77276F717070606E706885E1C1
:100D00000E94700110934601F70110818FB7F8948B
:100D1000C82FDD2760E080E00E94CE00882311F01C
:100D2000CFBF12C0CFBF8EE390E090936501809358
:100D300064018EE30E9464011150412F552760E049
:100D400070E0C7010E940502DF91CF911F91FF90D3
:100D5000EF900895CF92DF92EF92FF920F931F933F
:100D6000CF93DF938C01F62E6A01E22E8FB7F894B1
:100D7000C82FDD2760E080E00E94CE00882321F0AC
:100D8000CFBF80E090E01EC0CFBF0F0D111D802FA0
:100D900080680E946401F82E16950795802F807C4C
:100DA0000E9464010E2D0AC0EE2DFF27E01BF10901
:100DB000EC0DFD1D80810E94640101500023A1F70C
:100DC0008F2D9927DF91CF911F910F91FF90EF9079
:100DD000DF90CF900895CF93DF93CDB7DEB72C97F8
:100DE0000FB6F894DEBF0FBECDBF8FB7F894282F93
:100DF000AE014F5F5F4FDA01E7E8F1E088E0019074
:100E00000D928150E1F780914D0190914E018987BB
:100E1000892F99278A8780916001909161018B8742
:100E2000892F99278C872FBF2CE060E080E691E026
:100E30000E94AA062C960FB6F894DEBF0FBECDBF57
:100E4000DF91CF9108951F93CF93DF93182F8FB722
:100E5000F894C82FDD2760E080E00E94CE00882350
:100E600021F0CFBF80E090E005C0CFBF812F0E946E
:100E700064019927DF91CF911F910895EF92FF921E
:100E80000F931F93CF93DF93182F7B01042F8FB7FE
:100E9000F894C82FDD2760E080E00E94CE00882310
:100EA00021F0CFBF80E090E014C0CFBF1064812F4D
:100EB000992790936501809364010E946401182F23
:100EC000402F5527B70180E090E00E940502812F56
:100ED0009927DF91CF911F910F91FF90EF90089587
:100EE000C098609118017091190141E08FE30E9450
:100EF0003E07089582E090E0909343018093420181
:100F000081E080934C0120E030E080910201843048
:100F100011F421E030E0232B29F484E00E94000149
:100F2000882319F40E947007089584E00E94FD054B
:100F300008951F920F920FB60F9211242F933F9393
:100F40004F935F936F937F938F939F93AF93BF93D1
:100F5000EF93FF938091420190914301019749F4EF
:100F600082E090E090934301809342010E947A07CF
:100F700005C0809148018F5F80934801FF91EF91F8
:100F8000BF91AF919F918F917F916F915F914F91A1
:100F90003F912F910F900FBE0F901F9018951F93A8
:100FA00080911001882309F04BC0109102011F3F6E
:100FB00009F046C060E00E94CE00882309F440C0DA
:100FC00081E080939001809134018823E1F11092B7
:100FD000900185E090E045C0923069F5C09A80911B
:100FE000030120E030E08F3F11F421E030E0232BBB
:100FF000E9F4109305018F3F19F42FEF30E00DC095
:10100000282F3327F901E55AFE4F80818093030191
:101010008F3F11F41093040110832093490181E064
:101020008093110188E00E943D0105C010930501E5
:101030001092110111C080911101882369F00FC035
:1010400081E090E00EC0809105019091110188230C
:1010500019F2923021F0EFCF80E00E94DF0080E0B3
:1010600090E01F9108951F93CF93DF939FB7F8945B
:10107000C92FDD271C2F90910201981721F0CFBFB7
:1010800081E090E03AC08FEF80930201309110012F
:101090003323F1F48FB7F8949927109281018FBF11
:1010A0000E94CF07CFBF11C02093020181E090E0E2
:1010B00002C0880F991F4A95E2F780953823309334
:1010C000100186E00E943D011FBF80E090E015C046
:1010D00080E065E0E32FFF270E941216292F492F99
:1010E0005527CF01042E02C0959587950A94E2F703
:1010F00080FDDACF822F8F5FEFCFDF91CF911F91ED
:1011000008951F93CF93DF938FB7F894C82FDD27EF
:101110001C2F8091420190914301892B29F484E096
:101120000E943308CFBF1EC010924C01809148012D
:10113000882311F0B79904C00E9908C0882319F0CC
:101140008150809348010E947A070BC081E090E0B3
:1011500090934301809342011092480184E00E94E1
:1011600033081FBFDF91CF911F9108950E942C0378
:10117000C09AC09888E00E94230788E00E94230755
:10118000C09A84E00E9433080E94810808951F934A
:10119000182F81E090E09093130180931201109238
:1011A00034010E94CF078FB7F894992710930C0150
:1011B0008FBF82E00E943D011F91089561E081E0B0
:1011C0000E94B4008823E9F48FB7F894282F3327BE
:1011D00080910D0190910E01892B11F02FBF20C03D
:1011E00081E090E090930E0180930D012FBFDD9A76
:1011F0000E94C70324E130E040E050E00E948404F4
:101200000FC062E081E00E94CE00882319F089E0DF
:1012100090E0089561E081E00E94CE00882319F0FB
:1012200080E090E0089585E090E00895CF92DF920D
:10123000EF92FF920F931F93CFB6F894DD240E9494
:101240004703DC01CB0166E470E00E941E161BE040
:10125000E12EF12CE80EF91EF092F601E092F50174
:101260000E94C70300271127A80197010E94840448
:10127000CFBE1F910F91FF90EF90DF90CF90089518
:101280001F93CF93DF938FB7F894C82FDD271C2FC0
:1012900080911201909113010897C9F489E00E948E
:1012A000230783E00E943308C09A81E090E0909386
:1012B0001301809312018FB7F894992723E02093AC
:1012C0000C018FBF82E00E943D01CFBF30C0C098AB
:1012D0008091F901882311F085E001C084E00E942B
:1012E000230783FD09C080E00E94230783FF04C019
:1012F00085E090E020E003C083E090E021E090935F
:10130000130180931201C09A1FBF222341F0109253
:101310001C0183E00E9433080E94160908C00E9445
:10132000C70320E431E040E050E00E948404DF91F4
:10133000CF911F91089578941F920F920FB60F923C
:1013400011241F932F933F934F935F936F937F933A
:101350008F939F93AF93BF93EF93FF9387B78F7E46
:1013600087BF78941FB7F8948091570190915801E6
:10137000A0915901B0915A010097A105B10509F05A
:1013800051C080911201909113018530910561F156
:101390008630910530F48330910549F0049781F54A
:1013A0001AC087309105F1F0089751F514C0869B5B
:1013B0000FC084E090E090931301809312010E948B
:1013C000C70327E030E040E050E00E94840418C0EA
:1013D0000E94160915C00E945506882389F40E94B0
:1013E00040090EC080E00AC089E00E94230781E026
:1013F0000E94EA0483E00E94330887E00E94C70845
:1014000080910D0190910E01019771F482E090E0BE
:1014100090930E0180930D01DE98DE9A80E00E9489
:10142000FD0502C00E94E403812F99278FBFFF9121
:10143000EF91BF91AF919F918F917F916F915F914C
:101440004F913F912F911F910F900FBE0F901F90C2
:101450001895EF92FF920F931F93CF93DF938B0119
:10146000809164019091650186FF40C18F7B8F332D
:1014700009F08EC1C0911801D09119015881509383
:10148000440180914201909143018530910509F416
:1014900043C08630910509F48AC0029709F01FC144
:1014A00085E090E0909343018093420140913301A5
:1014B000852F99270196242F3327281739074CF1B8
:1014C000B79906C00E9904C0451B415040933301A3
:1014D000409144014A32E8F44423A1F0BE016F5F19
:1014E0007F4F483018F047E050E007C086E090E0BA
:1014F0009093430180934201552780E090E00E9441
:10150000050246C110924C01C09A84E00E94330843
:10151000E3C00E94B6083CC186E090E0909343018E
:101520008093420180914F01882309F439C0809152
:1015300086018823A9F5898185FF32C08F814E817C
:101540002FB7F894332760916001709161012FBF2C
:101550009927982F88275527842B952B861797072F
:1015600059F08F812E819927982F88273327822B36
:10157000932B8F5F9F4FA1F489818770813081F415
:10158000C09AC0988AE00E942307C09AC0984091F0
:10159000440147502896BE018FE30E943E07F8C0E1
:1015A00040914401475055272896BE01A6CFC09AC6
:1015B00080914801882339F484E00E9433088091A7
:1015C0004801882311F0B7990AC00E9B08C090917A
:1015D000EA01992321F0809144018B3038F4809105
:1015E0001801909119010E9438033DC0913001F516
:1015F000E091EE01FF27EE0FFF1FEE0FFF1FEA56EF
:10160000FE4F2081318142815381E0911801F09198
:10161000190121ABBB27A52F942F832F80ABCA01C3
:10162000AA27BB2787A7252F33274427552726A777
:101630008091EE019927019668E070E00E943216D1
:101640008093EE018091EA0181508093EA01882322
:1016500051F080911801909119010E943803109265
:10166000EE011092EA0180914401FE01E80FF11DA4
:10167000808187FF31C0012B79F169816770E0912A
:101680001801F0911901623019F5A0915001B09143
:101690005101109709F18091120190911301079760
:1016A000D9F4ED019B8183819817B1F487B78F7EC0
:1016B00087BF908181E08CA7E90FF11D829131965F
:1016C00088A780818F7789A780E00E94C70804C01F
:1016D000613011F489E02AC00E94810859C010923B
:1016E0004C01C09A84E00E94330852C08E3309F046
:1016F0004FC0C09A80911201909113010897C9F4CC
:10170000C09889E00E942307C09A83E00E943308B2
:1017100081E090E090931301809312018FB7F894C9
:10172000992723E020930C018FBF82E00E943D01A6
:101730002FC08091F901882349F484E090E09093D0
:101740001301809312010E94400922C083E00E948D
:10175000330883E090E090931301809312010E947C
:101760004703DC01CB0166E371E00E941E160BE02B
:10177000E02EF12CE80EF91EF0922E01E0922D01E0
:101780000E94C70300271127A80197010E94840423
:10179000DF91CF911F910F91FF90EF9008951F92CD
:1017A0000F920FB60F9211242F933F934F935F9395
:1017B0006F937F938F939F93AF93BF93EF93FF9319
:1017C0002FB1E0917A01F0917B01309739F080914F
:1017D0006D0190916E01E80FF91F208380916D01DA
:1017E00090916E01019690936E0180936D0180E05F
:1017F0000E94E50040911A0150911B0180916D01FA
:1018000090916E018417950718F40E9497011CC0EF
:1018100060917A0170917B018091F3019091F401C4
:1018200010927B0110927A011092F4011092F30150
:1018300010921B0110921A0110926E0110926D010C
:101840002FB120E00E94290AFF91EF91BF91AF9143
:101850009F918F917F916F915F914F913F912F91C8
:101860000F900FBE0F901F901895DF92EF92FF928E
:101870000F931F93CF93DF93CDB7DEB7A8970FB623
:10188000F894DEBF0FBECDBF082F863009F41BC110
:10189000873090F4823009F477C0833030F48823A5
:1018A00009F1813009F0BFC468C0843009F4CDC0AB
:1018B000853008F0D0C0ADC0893009F4F6C18A3057
:1018C00038F4873009F4BAC1883009F0ACC4D9C102
:1018D0008B3009F4BCC38B3008F486C38C3009F01C
:1018E000A2C402C40FB7F894112781E00E94EA0451
:1018F00061E0E62EF12CF0921301E09212011092B9
:10190000140110923401109246010FBF0FB7F894E2
:1019100011270E942C03F0924301E09242011092A1
:101920004C0189B78F7B89BF80E488BF8AB780620A
:101930008ABF8AB78F7E8ABF89B7806489BF0FBF8D
:101940008FB7F894082F112780910D0190910E0107
:10195000049719F483E00E9423070FBF0FB7F89490
:101960001127C09A80E00E9433080FBF8FB7F89408
:10197000992722E02093820105C08FB7F894992718
:10198000109282018FBF4FC48FB7F89499278FBFF1
:1019900063E081E00E94CE00882359F10FB7F894EC
:1019A0001127109213011092120187B78F7E87BF03
:1019B00087B78F7D87BF83E00E943308C09A0FBF2F
:1019C0000FB7F894112710924301109242010E9420
:1019D0002C03C09A89B78F7B89BF0FBF10920E016D
:1019E00010920D01DE98DD98DE9A81E00E943D01A3
:1019F00006C08FB7F8949927009382018FBF0E9489
:101A000026028091EF019091F001892B09F00BC41F
:101A100007C48FB7F894282F3327122F8091F7012E
:101A2000882309F0E5C381E08093F70180910D01DF
:101A300090910E01049721F481E00E94FD0503C0FE
:101A400084E00E943D011FBFEEC38FB7F894992731
:101A50001092F70197CF8FB7F894282F33278091F2
:101A60000F01882309F0C4C32FBF80B3992756E024
:101A7000969587955A95E1F7182F1170909162010C
:101A8000809163018917D9F01917C9F484E090E0B7
:101A900090930E0180930D018FB7F894992721E060
:101AA00020930F018FBF60E070E08DE10E94700114
:101AB0000E94EB06C09AC09880E00E943D011093FE
:101AC000630185E06DC08FB7F894992710910201EA
:101AD0008FBF123009F467C0133030F4112359F06E
:101AE000113009F0A0C348C0133009F476C0143097
:101AF00009F099C3A0C0C0988FB7F894082F112798
:101B000080910D0190910E010297A1F583E090E084
:101B100090930E0180930D0168E170E08DE10E94C9
:101B2000700181E08093620110920F0180B39927C8
:101B300046E0969587954A95E1F78170907080937D
:101B4000630185E00E943D0181E00E9423076FE769
:101B500072E08CE10E9470010E949F040E94B00418
:101B600066E57AE287E10E9470016FEF70E885E137
:101B70000E9470010FBF57C3C09886E00E942307E0
:101B80000E949F040E94B0040E94EB06C09AC09875
:101B900083E00E942307C09A81E00E94330884E01A
:101BA0000E943D0140C3C0988FB7F894082F1127B9
:101BB00060E080E00E94CE00882311F00FBF0AC0D1
:101BC0000FBF83E50E94640180E00E94640180E011
:101BD0000E946401C09A82E02BC08FB7F8949927C5
:101BE000209112018FBF243029F0283031F02230AB
:101BF000F1F413C30E94400916C3C09889E00E9403
:101C00002307C09A83E00E9433088FB7F89499277E
:101C100021E030E030931301209312018FBF8FB782
:101C2000F894992710930C018FBF82E0B9CF83E01D
:101C30000E943308F8C20E947007F5C20FB7F894EB
:101C4000112740911A0150911B0160917A01709106
:101C50007B018091F3019091F40110927B0110922D
:101C60007A011092F4011092F30110921B0110926C
:101C70001A0110926E0110926D0120E00E94290A53
:101C800079CF2FB7F89433278091490180930501CC
:101C900082E0809311012FBF80910501882309F014
:101CA000C2C2B89AC09886E07BCFA0911801B091CB
:101CB0001901DC909D012D0D311DF9018081881FD6
:101CC0008827881FFD0183A7F90180818F77FD0197
:101CD00081A721503040F9018081FD0180A7A091AA
:101CE0001801B0911901FD0132818FB7F89499273D
:101CF000209147018FBF222309F490C0832F992799
:101D0000969587959695879583709070823091050A
:101D100041F5878146812FB7F894332760916001A0
:101D2000709161012FBF9927982F88275527842B01
:101D3000952B8617970719F481E090E06CC0FD01A0
:101D40008781268140E050E09927982F8827332704
:101D5000822B932B8F5F9F4F11F441E050E0CA011B
:101D60005AC0039709F037C19E012F5F3F4F47E8E4
:101D700051E088E0FA010190AF01F90101929F0161
:101D80008150C1F79E012F5D3F4FAE014F5F5F4F06
:101D900088E0FA010190AF01F90101929F018150A1
:101DA000C1F79E01275F3F4FAE014F5D5F4F88E057
:101DB000FA010190AF01F90101929F018150C1F731
:101DC0009E012F5E3F4FAE01475F5F4F88E0FA01F3
:101DD0000190AF01F90101929F018150C1F79E016D
:101DE000275E3F4FAE014F5E5F4F88E0FA010190E2
:101DF000AF01F90101929F018150C1F748E050E025
:101E0000BE01675E7F4FCD0106960E949B16892B0F
:101E100009F0E1C003C0882309F4DDC0FCE0FD1532
:101E200008F0D9C0E0901801F0901901F701228163
:101E3000822F992716E0969587951A95E1F70397D3
:101E400019F468E070E002C062E070E0822F992728
:101E5000969587959695879583709070039719F45A
:101E600088E090E002C082E090E026E030E0E20E00
:101E7000F31E40E050E020E030E0F701E80FF91FEA
:101E80008AEF9FEFE80EF91E05C08191480F511DA2
:101E90002F5F3F4F26173707C4F3F70163818FEF9A
:101EA0008093F1018FB7F894782F20E030E0E1E2E1
:101EB000F1E0808191818417950731F48281861742
:101EC00009F47FC02093F1012F5F3F4F33962430F8
:101ED000310579F77FBF9091F1013FB7F8949F3FAB
:101EE00021F080911501891799F420911501822F15
:101EF0009927FC01EE0FFF1FE80FF91FEF5DFE4F62
:101F00005183408362832F5F2370209315010CC09F
:101F1000892F9927FC01EE0FFF1FE80FF91FEF5DD6
:101F2000FE4F518340836283832F99278FBF0FB762
:101F3000F8941127C7010E947000FC0190810FBF27
:101F4000F70183A5882309F442C09F3309F03FC0FD
:101F5000878146812FB7F8943327609106017091ED
:101F600007012FBF9927982F88275527842B952B5A
:101F70008617970759F0878126819927982F8827F8
:101F80003327822B932B8F5F9F4F09F5F7018385B2
:101F90008630E9F4F1E1DF16D1F4F70187859FB7C8
:101FA000F894282F332720FF02C0DA9801C0DA9A6C
:101FB00021FF02C0D99801C0D99A22FF04C0D89845
:101FC00003C07FBF04C0D89A892F99278FBFF09292
:101FD0001901E09218018FB7F894992710924C01DB
:101FE0008FBF0E9481081FC180914501882361F540
:101FF000209192013091930140919401509195016B
:10200000EFB7F894FF2760917D0170917E01809178
:102010007F0190918001E0902F01F09030010091BC
:102020003101109132016E0D7F1D801F911FEFBF96
:102030002093920130939301409394015093950122
:10204000109245010E9412030E942D023AC00E9484
:102050002D027B018C018FB7F894992710926C01A7
:102060008FBF8091790181FFDEC0809171019091D5
:102070007201A0917301B0917401A8019701281B0E
:10208000390B4A0B5B0BDA01C901209175013091C4
:1020900076014091770150917801281B390B4A0B4A
:1020A0005B0B2F3F8FEF38078FEF48078FE75807FD
:1020B00009F4B9C012161306140615062CF0C8014F
:1020C000B7010E945402AFC0209392013093930154
:1020D000409394015093950181E080934501C8019C
:1020E000B7010E9412039FC090915601809109018F
:1020F000981709F498C090930901992309F090C0AA
:10210000E0901601F09017010FB7F8941127C7015E
:102110000E947000FC018FE380830FBF1092F001DA
:102120001092EF0161E082E00E94B400882309F080
:1021300077C0809191018F5F809391018150F70169
:1021400083838FB7F894082F112762E081E00E9403
:10215000CE00882321F40FBF0E94260261C08FB7F2
:10216000F894992724E0209382018FBFF0926B01AD
:10217000E0926A010FBFD7011196FD018181F7013D
:1021800021819927982F88273327822B932B8072C0
:102190009C7C8183892F9927FD018183F70121810F
:1021A000982F882733272164822B932B8183892FB3
:1021B0009927FD018183F70114A610A611A611AA83
:1021C00010AA17A680E886A761E060938501409178
:1021D0006A0150916B018FB7F894282F33278091B3
:1021E0001201909113018830910511F0019711F0BF
:1021F0002FBF19C082E090E09093130180931201E9
:102200006093F901509351014093500110921C01C9
:102210002FBF0E945506882331F40E94640603C034
:102220008FEF80930901A8960FB6F894DEBF0FBE1A
:10223000CDBFDF91CF911F910F91FF90EF90DF9075
:1022400008958091EB018F3FB1F0282F3327F901DA
:10225000EB5CFE4F80818093EB018F3F11F4809304
:10226000F8018FEF80832F3F31F0822F0E94350CD1
:1022700081E090E0089580E090E008951F93CF936F
:10228000DF93CDB7DEB7E0970FB6F894DEBF0FBE91
:10229000CDBF1FB7F8944DE050E06FEF70E085E3DD
:1022A00091E00E94A8168FEF8093EB018093F801D4
:1022B00081E08EBD88E080BF83E083BF8CB59DB593
:1022C0004AE72CB53DB52817390708F44150442397
:1022D00011F0C901F6CF92B782B78917E9F32CB58F
:1022E0003DB592B782B78917E9F38CB59DB5821BCE
:1022F000930B409675E0969587957A95E1F79093C4
:10230000ED018093EC0113BE83B78EBD8EB580BF07
:1023100012BE1DBC1CBC8FEF86BF86B780937C00AD
:1023200080B7992787709070892BD1F7D29AD19A6C
:10233000D09ADA9AD99AD89A15BA8FEF84BBD498E2
:10234000DC981DBC1CBC87B7846087BF8EB5887FB6
:1023500084608EBD0E9421118823E1F78FEF809366
:102360004A01E1E2F1E08FEF9FEF918380831282D7
:10237000339621E0ED32F207C1F70E9447036093E4
:10238000910180910001909101010196AA27BB273C
:102390008093520190935301A0935401B09355013F
:1023A00080B7886080BF8BE083BF86EE81BF87B730
:1023B000826087BF0E948F0286EB91E090931901A3
:1023C000809318018E98B89A8C988FEF80935B0158
:1023D0001092810110928201109283011092840167
:1023E000B89AD69AD59A8FB7F89499272091060172
:1023F000309107018FBF30936101209360010E94EB
:10240000FD0429A73AA74BA75CA76DA77EA78FA7B6
:1024100098ABDE019196FE01B99688E001900D928D
:102420008150E1F7DE015196FE01B19688E00190FE
:102430000D928150E1F7DE015996FE01719688E018
:1024400001900D928150E1F7A7E8B1E0FE01799685
:1024500088E001900D928150E1F780910801992761
:1024600090934E0180934D018FE180937C018AE12E
:1024700080938F010E94FD0429A73AA74BA75CA770
:102480006DA77EA78FA798ABDE019196FE01B99646
:1024900088E001900D928150E1F7DE011196FE0176
:1024A000B19688E001900D928150E1F7DE01199616
:1024B000FE01319688E001900D928150E1F7A7E886
:1024C000B1E0FE01399688E001900D928150E1F76C
:1024D000A7E8B1E0FD0137969C9180818D939083B0
:1024E000319781E0EA38F807B9F781E08093470136
:1024F0001092F20180934F01109286010E942111E7
:102500008823E1F7812F99278FBF78940E94DE08F6
:102510008FB7F894482F55274BC087B799278370FA
:102520009070892B19F4E5E0F0E013C080B799278B
:1025300087709070892BD1F781B792B7891B8C3047
:1025400030F082B7853F18F4E3E0F0E002C0E2E04B
:10255000F0E087B7887BC1F480917D008B7FA1F488
:102560006E9912C08AB190919A00892B887161F49A
:102570008091740082FD08C0379B03C081E090E029
:1025800005C085E090E002C080E090E025B78E179E
:1025900008F4E82FFF27E457FF4FE491237E2062E1
:1025A000E22BE5BF78948895F89485B78F7D85BF39
:1025B0008091EB018F3F09F4B0CF282F3327F90129
:1025C000EB5CFE4F80818093EB018F3F11F4809391
:1025D000F8018FEF80832F3F09F49FCF4FBF822FE9
:1025E0000E94350C95CF78941F920F920FB60F92E0
:1025F00011242F923F924F925F926F927F928F920F
:102600009F92AF92BF92CF92DF92EF92FF920F9381
:102610001F932F933F934F935F936F937F938F936A
:102620009F93AF93BF93CF93DF93EF93FF93C6B581
:10263000D7B58FB7F894282E0E94C7039B012C1B97
:102640003D0B442755272B013C01421A530A640ACB
:10265000750A80911201909113018530910521F046
:10266000069709F0E0C0BFC086E090E090931301A8
:102670008093120131E0332E30924B0110921401FD
:1026800080E00E94EA04E0915001F091510141AADA
:10269000BB27A72D962D852D80ABC301AA27BB276D
:1026A00087A7872D9927AA27BB2786A7E0915001E6
:1026B000F091510185A5882309F484C0608165509B
:1026C00077274F01860E971EF4012081E1808281D9
:1026D000A3809927AA27BB27BA2FA92F982F88272D
:1026E000332744275527522F442733272227FF24F7
:1026F000002711278701FF24EE242E293F29402B94
:10270000512BBB24CC24DD242A293B294C295D29CB
:10271000822B932BA42BB52B84199509A609B709F5
:102720008383292F3A2F4B2F552722839D0144273E
:10273000552721838B2F9927AA27BB278083C098F1
:1027400024E0A40180E090E00E94AA06C09AF4016F
:102750002081E1808281A3809927AA27BB27BA2FF5
:10276000A92F982F8827332744275527522F4427EE
:1027700033272227FF24002711278701FF24EE2477
:102780002E293F29402B512BBB24CC24DD242A2980
:102790003B294C295D29822B932BA42BB52B840D2F
:1027A000951DA61DB71D8383292F3A2F4B2F552723
:1027B00022839D014427552721838B2F9927AA2700
:1027C000BB278083E0915001F0915101818185FF09
:1027D00002C03092340183E00E94330887B78F7EB5
:1027E00087BF84997AC010924B0181E00E94EA046D
:1027F000E0915001F0915101818185FF0FC087E088
:1028000090E090931301809312010E94C70320E08F
:1028100031E040E050E00E94840403C080E00E9468
:10282000C708849B5AC080911401882391F5809138
:102830004B01882371F511E010934B010E94EA04CB
:1028400080B32091EA01283098F4E091EE01E20F84
:10285000FF27E770F070EE0FFF1FEE0FFF1FEA5625
:10286000FE4F40825182628273822F5F2093EA0181
:1028700010931401D0936701C093660184992DC011
:102880009927E4E096958795EA95E1F7182F11705E
:1028900001C010E080914B018130F9F410924B019E
:1028A0000E94EA04109214011123B9F48091660188
:1028B00090916701C81BD90B2A9778F48091EA019F
:1028C000882319F081508093EA0180915001909102
:1028D0005101009711F00E9438032FBEFF91EF9134
:1028E000DF91CF91BF91AF919F918F917F916F9128
:1028F0005F914F913F912F911F910F91FF90EF901A
:10290000DF90CF90BF90AF909F908F907F906F900F
:102910005F904F903F902F900F900FBE0F901F90A1
:102920001895ACE2B0E0E7E9F4E10C946416222ECD
:10293000332E442E552E662E772E882E992EFE018C
:102940003196A8E01192AA95E9F729823A824B8242
:102950005C826D827E828F829886FE013996B8E015
:102960001192BA95E9F7A986BA86CB86DC86ED8600
:10297000FE860F87188B89819A81AB81BC8189A7DC
:102980009AA7ABA7BCA77C018D018FEF9FEFA0E0BA
:10299000B0E0E822F9220A231B2389A59AA5ABA55A
:1029A000BCA51D014424552489859A85AB85BC8529
:1029B0008DA39EA3AFA3B8A75C016D018FEF9FEF1E
:1029C000A0E0B0E0A822B922CA22DB228DA19EA1FC
:1029D000AFA1B8A53D0188249924C801B701A6017B
:1029E00095010E94451669A37AA38BA39CA3C801F5
:1029F000B701A40193010E9445167B018C01C2011D
:102A0000B101A60195010E9445165B016C01C2014E
:102A1000B101A40193010E9445163B014C01EA0C4F
:102A2000FB1C0C1D1D1D89A19AA1ABA1BCA19D0180
:102A3000442755272E0D3F1D401F511F2A153B05CA
:102A40004C055D0540F480E090E0A1E0B0E0680E48
:102A5000791E8A1E9B1ECA01AA27BB27860D971DB9
:102A6000A81DB91D8D8F9E8FAF8FB8A3A9013327E5
:102A7000222789A19AA1ABA1BCA1A070B070280F98
:102A8000391F4A1F5B1F298F3A8F4B8F5C8FA98C90
:102A9000BA8CCB8CDC8CED8CFE8C0F8D18A1FE01DA
:102AA000719698E011929A95E9F7ED8AFE8A0F8B5C
:102AB000188F2D813E814F8158856DA17EA18FA1F8
:102AC00098A50E9445163B014C012D853E854F85FA
:102AD000588969A57AA58BA59CA50E9445162D89C4
:102AE0003E894F89588D260F371F481F591F260DC5
:102AF000371D481D591D2D8B3E8B4F8B588F6D8870
:102B00007E888F88988C2A2D3B2D4C2D5D2D662D2F
:102B1000772D882D992DE2E1AC960C948016A0E1DA
:102B2000B0E0E5E9F5E10C946416222E332E442E34
:102B3000552E662E772E882E992E002309F466C016
:102B400088E0FE01319611928A95E9F729833A834C
:102B50004B835C836D837E838F829887E0E2E01BEA
:102B60001E16CCF52D813E814F815885602F772729
:102B700067FD7095DA01C901062E04C0B695A795C8
:102B8000979587950A94D2F78D879E87AF87B88BE4
:102B900004C0220F331F441F551FEA95D2F78981C5
:102BA0009A81AB81BC8104C0B695A795979587950E
:102BB0006A95D2F7282B392B4A2B5B2B29873A872A
:102BC0004B875C8729843A844B845C846D847E8443
:102BD0008F8498881BC01D861E861F86188A2E2FFC
:102BE000332727FD3095309521953F4F8D819E816C
:102BF000AF81B88504C0B695A795979587952A9516
:102C0000D2F789879A87AB87BC87DCCF222D332DFB
:102C1000442D552D662D772D882D992DE2E1609656
:102C20000C948016991B79E004C0991F961708F040
:102C3000961B881F7A95C9F780950895AA1BBB1B20
:102C400051E107C0AA1FBB1FA617B70710F0A61BAC
:102C5000B70B881F991F5A95A9F780959095BC01CD
:102C6000CD01089597FB092E07260AD077FD04D0E1
:102C7000E5DF06D000201AF4709561957F4F089526
:102C8000F6F7909581959F4F0895629FD001739FAD
:102C9000F001829FE00DF11D649FE00DF11D929FF8
:102CA000F00D839FF00D749FF00D659FF00D992737
:102CB000729FB00DE11DF91F639FB00DE11DF91F5B
:102CC000BD01CF01112408952F923F924F925F9240
:102CD0006F927F928F929F92AF92BF92CF92DF922C
:102CE000EF92FF920F931F93CF93DF93CDB7DEB791
:102CF000CA1BDB0B0FB6F894DEBF0FBECDBF099425
:102D00002A88398848885F846E847D848C849B847B
:102D1000AA84B984C884DF80EE80FD800C811B8189
:102D2000AA81B981CE0FD11D0FB6F894DEBF0FBEB8
:102D3000CDBFED010895FB01DC0104C08D91019030
:102D4000801921F441505040C8F7881B990B089511
:102D5000DC0101C06D9341505040E0F70895FFCF72
:0C2D60000100FFFFFFFF010022FFFFFF4A
:00000001FF
