S01800006275696C642F6D6963617A2F6D61696E2E73726563E5
S11300000C9449000C94DE040C94E8040C94F2045F
S11300100C94FC040C9406050C9410050C944406F2
S11300200C941A050C9468000C9468000C94D00D80
S11300300C946E0F0C94A8040C94BE040C94240528
S11300400C9497040C946A0D0C9468000C9468004A
S11300500C9468000C9468000C9468000C9468007C
S11300600C94B3040C9468000C9468000C9468001D
S11300700C9468000C9468000C9468000C9468005C
S11300800C9468000C9468000C94680000081C1818
S1130090141011241FBECFEFD0E1DEBFCDBF11E09D
S11300A0A0E0B1E0E0E0F2E300E00BBF02C00790A3
S11300B00D92A831B107D9F712E0A8E1B1E001C06F
S11300C01D92AA34B107E1F70E9428150C94FF1879
S11300D00C9400008FB7F894992708958FBF089562
S11300E0FC0182819927582F442781819927482B25
S11300F0592BCA01892F992786958695837090700C
S11301008230910559F08330910559F0892B19F407
S113011020E030E008C02CE93FEF05C022E030E0E9
S113012002C028E030E0CA0184E0989F812D99271D
S113013011248230910559F08330910559F0892BAF
S113014019F480E090E008C08CE99FEF05C082E0DC
S113015090E002C088E090E0280F391F2A5F3F4FEB
S1130160CF01820F931F0895282F9FB7F894662319
S113017049F0E82FFF27E253FE4F8081882311F0D6
S113018021E006C0E22FFF27E253FE4F608320E008
S1130190892F99278FBF822F99270895E82F8FB72A
S11301A0F894282F332790E0FF27E253FE4F8081F5
S11301B0861709F491E02FBF892F99270895882382
S11301C011F06E9A08956E980895882311F06F9A2D
S11301D008956F98089580E00E94DF00BA9ABB9852
S11301E0B99AB89A6C9A80E00E94E5006B986A9874
S11301F081E00E94DF00709A8DB18C7F8DB90895E3
S11302000F931F93CF93DF93182F8FB7F894C82FB2
S1130210DD270C2F61E080E00E94B400882321F0E8
S1130220CFBF85E090E024C0809105018823A1F42C
S113023080911D01823081F409C082E080931D0108
S1130240109205010E94EB00B89AC0981093020125
S113025080E00FBF99270CC080911D01882369F3AA
S11302608FB7F89499271092CE018FBF81E0F1CF18
S1130270DF91CF911F910F910895282F9FB7F89484
S1130280E82FFF27EF5BFE4F80818F3F81F4E091E1
S11302904802E21771F40BC020933A0204C0FF270E
S11302A0EF5BFE4F20832093480220E007C025E047
S11302B005C080913A028F3F91F7EECF892F99279D
S11302C08FBF822F992708951F93182F81E00E94D2
S11302D0DF001FB9779BFECF8FB199271F91089537
S11302E08F929F92AF92BF92CF92DF92EF92FF9242
S11302F00F931F93CF93DF938FB7F8949927C090F0
S11303004302D09044028090930190909401C09154
S11303107B01D0917C012091260130912701EAE0F4
S1130320AE2EB12CAC0EBD1E2A153B0508F45901A6
S11303308FBF7401EC0EFD1E86010C0F1D1F14C02F
S1130340C114D10419F0F801808101C080E00E9439
S113035064018114910411F0F701808321960894BB
S1130360E11CF11C0F5F1F4FC5010197C817D90786
S113037038F381E00E94E5009FB7F894C114D104DA
S113038031F0CC0EDD1EF60180818FB901C01FB89B
S1130390D0937C01C0937B01892F99278FBF80E084
S11303A090E0DF91CF911F910F91FF90EF90DF903C
S11303B0CF90BF90AF909F908F9008952FB7F894EF
S11303C0332750932701409326019093440280934E
S11303D04302709394016093930110927C011092F4
S11303E07B012FBF452B29F08FB10E947001992703
S11303F0089589E00E943D0180E090E008958FB760
S1130400F89499271092D0018FBF089580E88093C3
S11304103F0110925A0110923D021092390210923B
S113042056010895CF93DF93FC0115A6DC019E9637
S1130430ED011B821A82198280E886A7DF91CF9191
S113044008952F923F924F925F926F927F928F9274
S11304509F92AF92BF92CF92DF92EF92FF920F934F
S11304601F93CF93DF93CDB7DEB728970FB6F894D9
S1130470DEBF0FBECDBF209060013090610140907F
S1130480620150906301662477248824BEE4AB2E75
S1130490A3E8BA2ECC24DD24EE24FF2400E010E0EF
S11304A0222D332D442D552D662D772D882D90E04A
S11304B00E94E11629833A834B835C836D837E8398
S11304C08F839887822E932EA42EB52E2401350176
S11304D000E20E94DF17A22EB32EC42ED52EC30134
S11304E0B20196958795779567956A0D7B1D8C1D4E
S11304F09D1D97FF05C09F776F5F7F4F8F4F9F4F65
S11305006093600170936101809362019093630131
S113051028960FB6F894DEBF0FBECDBFDF91CF9102
S11305201F910F91FF90EF90DF90CF90BF90AF900D
S11305309F908F907F906F905F904F903F902F90FF
S113054008958FB7F89460917F01709180012CB564
S11305503DB506B602FE04C06F5F7F4F2CB53DB5B6
S113056099278FBF88279927CB01772766274427A8
S11305705527622B732B842B952B0895EF92FF92B2
S11305800F931F930E94A1027B018C0120916A01A9
S113059030916B0140916C0150916D018091650126
S11305A090916601A0916701B0916801820F931F39
S11305B0A41FB51FE216F3060407150730F08217CF
S11305C09307A407B50758F005C082179307A4073B
S11305D0B507E0F5E816F9060A071B07B8F59C010C
S11305E0AD012E193F09400B510B213060E836074D
S11305F060E0460760E0560768F180E090E8A0E01C
S1130600B0E0E80EF91E0A1F1B1FE0926A01F09287
S11306106B0100936C0110936D0180E090E8AFEFE3
S1130620BFEFE80EF91E0A1F1B1F20503048404040
S113063050402093650130936601409367015093C5
S1130640680120E030E840E050E014C020E030E0F1
S113065040E050E080936A0190936B01A0936C0199
S1130660B0936D01109265011092660110926701BA
S113067010926801A901B7012CB53DB5C9018E19C5
S11306809F0903968417950720F0B9016D5F7F4F8A
S113069002C0640F751F6115710511F461E070E00B
S11306A0615070407BBD6ABD80E186BF87B78061C1
S11306B087BF1F910F91FF90EF9008950F931F93A1
S11306C00FB7F894112760936A0170936B018093BC
S11306D06C0190936D012093650130936601409302
S11306E06701509368010E94BE020FBF1F910F91D2
S11306F0089597B79F7D97BF90E296BF882319F01E
S11307008EB5806402C08EB58F7B8EBD87B7806244
S113071087BF80E090E008957FB7F89462B7209196
S1130720290130912A0140912B0150912C0106B6E8
S113073001FE0FC081B792B7280F311D411D511D15
S11307402F5F3F4F4F4F5F4F290F311D411D511DEB
S113075004C0260F311D411D511D872F99278FBFBE
S1130760CA01B90108959FB7F894282F332720FFB1
S113077002C0DA9801C0DA9A21FF02C0D99801C0F8
S1130780D99A22FF02C0D89801C0D89A892F9927F4
S11307908FBF0895DF92EF92FF920F931F938FB74D
S11307A0F894282F3327D22E91B782B746B79817DB
S11307B011F041FF02C02FBF6AC080917A018823E3
S11307C0E1F10E948C03E090CA01F090CB0100910A
S11307D0CC011091CD0120913B0130913C0140911D
S11307E03D0150913E016E197F09800B910B6217F8
S11307F073078407950720F010927A0171E01EC0F8
S11308002E0D3F1D401F511F8091290190912A01F7
S1130810A0912B01B0912C01281B390B4A0B5B0BC7
S1130820273E31054105510540F4822F223010F056
S113083070E005C070E082E002C070E086EE682FD0
S1130840615000B601FCFDCF82B7681709F46F5FF1
S11308502091290130912A0140912B0150912C01C2
S1130860DA01C9010196A11DB11D860F911DA11DBB
S1130870B11D82179307A407B50710F4622F609582
S113088061BFDFBE772319F080E00E943D011F9114
S11308900F91FF90EF90DF900895AFB7F894BB27C6
S11308A0E1E0E0937A016093CA017093CB018093F5
S11308B0CC019093CD0120933B0130933C014093B4
S11308C03D0150933E01AFBF0E94CA030895AF9209
S11308D0BF92CF92DF92EF92FF920F931F93CF9329
S11308E0DF93CDB7DEB728970FB6F894DEBF0FBEFF
S11308F0CDBF20E070E0E0910001F091010132E110
S11309004DE65CE46FE4809101019E2F28960FB6BA
S1130910F894DEBF0FBECDBFDF91CF911F910F9131
S1130920FF90EF90DF90CF90BF90AF9008951F920B
S11309300F920FB60F9211248F9383B783BF00B623
S113094000FCFDCF8F910F900FBE0F901F90189554
S113095078941F920F920FB60F9211240F900FBE2E
S11309600F901F90189578941F920F920FB60F92C4
S113097011240F900FBE0F901F90189578941F921A
S11309800F920FB60F9211242F933F938F939F933F
S11309902FB7F894332780917F01909180010196BD
S11309A09093800180937F012FBF9F918F913F91FE
S11309B02F910F900FBE0F901F9018951F920F92BA
S11309C00FB60F9211240F900FBE0F901F90189521
S11309D01F920F920FB60F9211240F900FBE0F901B
S11309E01F9018951F920F920FB60F9211240F901B
S11309F00FBE0F901F9018951F920F920FB60F9273
S1130A0011240F900FBE0F901F9018951F920F92F4
S1130A100FB60F9211240F900FBE0F901F901895D0
S1130A201F920F920FB60F9211240F900FBE0F90CA
S1130A301F9018951F920F920FB60F9211240F90CA
S1130A400FBE0F901F9018951F920F920FB60F9222
S1130A5011242F933F934F935F936F937F938F93BF
S1130A609F93AF93BF93EF93FF9383B783BF00B676
S1130A7000FCFDCF81B799270196AA27BB272091B7
S1130A80290130912A0140912B0150912C01280F0A
S1130A90391F4A1F5B1F2093290130932A01409379
S1130AA02B0150932C0178940E94CA03FF91EF917B
S1130AB0BF91AF919F918F917F916F915F914F9172
S1130AC03F912F910F900FBE0F901F9018950F9389
S1130AD01F93182F0FB7F89461E080E00E94B400D0
S1130AE0882371F510930201809105018823A9F5EB
S1130AF080911D01823089F588E00CC00E94EB00D2
S1130B0080911D01882349F481E080931D01109296
S1130B1057018AE00E943D012AC0809169018F3FFC
S1130B2031F5E0910401EE2311F11CC01092030190
S1130B3004C0FF27E759FE4F10821092040117C02A
S1130B4081E090E002C0880F991F1A95E2F7209186
S1130B501C01282B20931C010AC080911D018823AD
S1130B60E1F6CCCF809103018F3F19F7DFCF802FBF
S1130B7099278FBF80E090E01F910F9108951F93F4
S1130B8083E00E9400019927182F882319F083E03D
S1130B900E946705812F99271F9108951F93CF9372
S1130BA0DF93182F8FB7F894C82FDD2760E080E01B
S1130BB00E94CE00882321F0CFBF80E090E005C0E2
S1130BC0CFBF812F0E9464019927DF91CF911F919C
S1130BD00895EF92FF920F931F93CF93DF93182FF3
S1130BE07B01042F8FB7F894C82FDD2760E080E0E5
S1130BF00E94CE00882321F0CFBF80E090E014C093
S1130C00CFBF1064812F9927909373018093720151
S1130C100E946401182F402F5527B70180E090E00F
S1130C200E94DE01812F9927DF91CF911F910F91AF
S1130C30FF90EF900895C098609124017091250170
S1130C4041E08FE30E94E905089582E090E09093EB
S1130C5051018093500181E080935A0120E030E0FB
S1130C6080910201843011F421E030E0232B29F437
S1130C7084E00E940001882319F40E941B06089551
S1130C8084E00E94670508951F920F920FB60F9299
S1130C9011242F933F934F935F936F937F938F937D
S1130CA09F93AF93BF93EF93FF93809150019091E3
S1130CB05101019749F482E090E0909351018093AF
S1130CC050010E94250605C0809156018F5F8093D4
S1130CD05601FF91EF91BF91AF919F918F917F91B9
S1130CE06F915F914F913F912F910F900FBE0F9095
S1130CF01F901895CF92DF92EF92FF920F931F935C
S1130D00CF93DF938C01F62E6A01E22E8FB7F8940D
S1130D10C82FDD2760E080E00E94CE00882321F008
S1130D20CFBF80E090E01EC0CFBF0F0D111D802FFC
S1130D3080680E946401F82E16950795802F807CA8
S1130D400E9464010E2D0AC0EE2DFF27E01BF1095D
S1130D50EC0DFD1D80810E94640101500023A1F768
S1130D608F2D9927DF91CF911F910F91FF90EF90D5
S1130D70DF90CF900895CF93DF93CDB7DEB72C9754
S1130D800FB6F894DEBF0FBECDBF8FB7F894282FEF
S1130D90AE014F5F5F4FDA01E4EDF1E088E00190CE
S1130DA00D928150E1F780915B0190915C018987FC
S1130DB0892F99278A8780916E0190916F018B8783
S1130DC0892F99278C872FBF2CE060E080E691E083
S1130DD00E947A062C960FB6F894DEBF0FBECDBFE4
S1130DE0DF91CF9108951F9380911C01882309F00E
S1130DF04BC0109102011F3F09F046C060E00E9401
S1130E00CE00882309F440C081E08093DD01809105
S1130E1040018823E1F11092DD0185E090E045C0B6
S1130E20923069F5C09A8091030120E030E08F3F51
S1130E3011F421E030E0232BE9F4109305018F3FF6
S1130E4019F42FEF30E00DC0282F3327F901E759AB
S1130E50FE4F8081809303018F3F11F410930401AE
S1130E6010832093570181E080931D018AE00E9442
S1130E703D0105C01093050110921D0111C0809120
S1130E801D01882369F00FC081E090E00EC08091BD
S1130E90050190911D01882319F2923021F0EFCFC2
S1130EA080E00E94DF0080E090E01F9108951F938E
S1130EB0CF93DF939FB7F894C92FDD271C2F909110
S1130EC00201981721F0CFBF81E090E03AC08FEF84
S1130ED08093020130911C013323F1F48FB7F8940D
S1130EE099271092CE018FBF0E94F306CFBF11C085
S1130EF02093020181E090E002C0880F991F4A9577
S1130F00E2F78095382330931C0188E00E943D016C
S1130F101FBF80E090E015C080E065E0E32FFF276D
S1130F200E946218292F492F5527CF01042E02C091
S1130F30959587950A94E2F780FDDACF822F8F5F2B
S1130F40EFCFDF91CF911F9108951F93CF93DF933C
S1130F508FB7F894C82FDD271C2F809150019091F2
S1130F605101892B29F484E00E945707CFBF1EC08A
S1130F7010925A0180915601882311F0B79904C048
S1130F800E9908C0882319F08150809356010E945D
S1130F9025060BC081E090E09093510180935001AD
S1130FA01092560184E00E9457071FBFDF91CF9132
S1130FB01F9108950E940602C09AC09888E00E947A
S1130FC0CE0588E00E94CE05C09A84E00E945707AF
S1130FD00E94A5070895FF920F931F93CF93DF9369
S1130FE0F82E8B018FB7F894C82FDD2760E080E0DE
S1130FF00E94CE00882321F0CFBF80E090E00CC097
S1131000CFBF8F2D0E946401812F99270E94640114
S1131010802F0E9464019927DF91CF911F910F9136
S1131020FF9008951F931FB7F8948091550188236A
S113103019F460E070E009C060E080914202882306
S113104009F461E081E06827772780915D018823B6
S113105019F480E090E00AC090E08091D3018823E5
S113106009F491E081E09827892F9927762F662744
S1131070770F770F770FF4E0880F991FFA95E1F750
S1131080826E9262682B792B81E10E94EB07812F9B
S113109099278FBF1F9108958FB7F894992760916E
S11310A0DC018FBF85E0689FB0011124625D7E4F33
S11310B0706488E10E94EB070895EF92FF921F93FA
S11310C0CF93DF93E0905E01F0905F01F70182A57A
S11310D09927182F882309F41FE1C098809154019F
S11310E0811749F0612F77276F717070606E706897
S11310F085E10E94EB0710935401F70110818FB72B
S1131100F894C82FDD2760E080E00E94CE00882399
S113111011F0CFBF12C0CFBF8EE390E09093730164
S1131120809372018EE30E9464011150412F552770
S113113060E070E0C7010E94DE01DF91CF911F9152
S1131140FF90EF9008950F931F93CF93DF93EC01DB
S11311500FB7F89411270E947000FC018FE380837D
S11311600FBF1092400210923F0261E082E00E94A1
S1131170B400882319F085E090E072C08091DE010C
S11311808F5F8093DE0181508B838FB7F894082F93
S1131190112762E081E00E94CE00882329F40FBF6A
S11311A00E94FF0181E05BC08FB7F894992724E087
S11311B02093CF018FBFD0937901C09378010FBFE3
S11311C0FE013196818129819927982F8827332719
S11311D0822B932B80729C7C8983892F992781830E
S11311E02981982F882733272164822B932B898385
S11311F0892F992781831CA618A619A619AA18AAAB
S11312001FA680E88EA761E06093D2014091780127
S1131210509179018FB7F894282F332780911E01BC
S113122090911F018830910511F0019711F02FBFA3
S113123015C082E090E090931F0180931E0160939B
S1131240490250935F0140935E01109228012FBF21
S11312500E94BF05882311F40E945D0880E099274D
S1131260DF91CF911F910F910895CF93DF93DA010E
S1131270422F2D3118F082E090E05EC0ED018B87A3
S11312806E83872F99278F832FB7F8943327809104
S11312905B0190915C012FBFFD018483892F992705
S11312A085832FB7F8943327809106019091070125
S11312B02FBF8887892F9927898731968181298132
S11312C09927982F8827332720643868822B932BFB
S11312D08983892F99278183435F4C934D50809153
S11312E00901882359F010920901642FCD010E944D
S11312F0A3089927282F8823A9F417C0842F992796
S11313009093770180937601B0932301A0932201F7
S11313108CE00E943D0180910901882349F489E011
S113132090E00AC08FEF80930901822F992704C0AF
S11313301092640180E090E0DF91CF910895CF9303
S1131340DF93FB01DB0116968683892F9927ED0134
S1131350898386E0838780917D0190917E01892B2A
S113136019F085E090E02BC0F0937E01E0937D01BD
S1131370435F40834D5080910C01882319F480E031
S113138090E01DC08385ED0169817727762F66275C
S113139026813327622B732B10920C01242FAF016B
S11313A00E9435099927282F882339F081E08093FA
S11313B00C0110927E0110927D01822F9927DF91FA
S11313C0CF910895CF93DF93DC01EC018CA58823A2
S11313D0A9F4FD01319621813327322F22278981F7
S11313E099278062282B392B2983232F33272183A4
S11313F044E0BD0182E090E00E949F09DF91CF911B
S113140008950F931F93CF93DF93182FEB01042FAD
S1131410E82FFF27EE0FFF1FE358FE4F11821082C3
S113142010920C01E0917D01F0917E01309721F042
S113143080913E0280FF0EC081E080930C0103C0C6
S11314408EE00E943D011123B9F4602FCE010E9469
S1131450E20912C020812D50332767817727762F28
S1131460662786819927682B792BAF0183850E9493
S11314703509882341F3E4CFDF91CF911F910F9178
S113148008959B0180910C01882349F460917D01AA
S113149070917E016217730711F40E94010A089586
S11314A0AF92BF92CF92DF92EF92FF920F931F936E
S11314B05B016C016091890161FF20C02091810171
S11314C0309182014091830150918401E090850123
S11314D0F09086010091870110918801D601C50121
S11314E0821B930BA40BB50B8E159F05A007B107A8
S11314F028F0E1E8F1E0A0E0B0E022C0EAE8F1E0A1
S11315006091920161FF98C020918A0130918B0112
S113151040918C0150918D01E0908E01F0908F01EB
S11315200091900110919101A21AB30AC40AD50A3C
S1131530AE14BF04C006D10608F47EC0A1E0B0E03A
S113154060FF04C080858D7F808708C02E0D3F1DFD
S1131550401F511F2083318342835383AA2309F000
S11315606BC080910001909101018093A201892FA9
S113157099278093A1018091DF019091E00165E0BA
S113158070E00E946E18FC01EE0FFF1FE35FFE4F38
S1131590808191818093A401892F99278093A3014D
S11315A0209197013327322F222780919601992782
S11315B08062282B392B20939601232F33272093E5
S11315C0970144E065E971E082E090E00E949F09A0
S11315D08091DF019091E00101969093E001809366
S11315E0DF018091A3019927382F22278091A4013C
S11315F09927282B392B24303105A9F025303105C2
S113160038F42115310559F02230310591F409C01F
S11316102630310551F02830310559F408C080E0F6
S113162009C081E007C082E005C084E003C087E010
S113163001C085E00E94B30381E00E943D011F9137
S11316400F91FF90EF90DF90CF90BF90AF900895EF
S11316501F93182F81E090E090931F0180931E0147
S1131660109240010E94F3068FB7F89499271093C3
S113167018018FBF84E00E943D011F910895CF920D
S1131680DF92EF92FF920F931F93CFB6F894DD246D
S11316900E942102DC01CB0166E470E00E946E1816
S11316A0FBE0EF2EF12CE80EF91EF0924602E092D8
S11316B045020E94A10200271127A80197010E9458
S11316C05E03CFBE1F910F91FF90EF90DF90CF90FC
S11316D008951F93CF93DF938FB7F894C82FDD2716
S11316E01C2F80911E0190911F010897C9F489E075
S11316F00E94CE0583E00E945707C09A81E090E0E3
S113170090931F0180931E018FB7F894992723E0CB
S1131710209318018FBF84E00E943D01CFBF30C0E9
S1131720C09880914902882311F085E001C084E0CB
S11317300E94CE0583FD09C080E00E94CE0583FF90
S113174004C085E090E020E003C083E090E021E065
S113175090931F0180931E01C09A1FBF222341F062
S11317601092280183E00E9457070E943F0B08C093
S11317700E94A10220E431E040E050E00E945E03B8
S1131780DF91CF911F910895EF92FF920F931F93D2
S1131790CF93DF938B01809172019091730186FF47
S11317A040C18F7B8F3309F08EC1C0912401D09149
S11317B0250158815093520180915001909151011B
S11317C08530910509F443C08630910509F48AC037
S11317D0029709F01FC185E090E090935101809336
S11317E0500140913F01852F99270196242F3327DB
S11317F0281739074CF1B79906C00E9904C0451B48
S1131800415040933F01409152014A32E8F444234D
S1131810A1F0BE016F5F7F4F483018F047E050E001
S113182007C086E090E090935101809350015527C2
S113183080E090E00E94DE0146C110925A01C09AF5
S113184084E00E945707E3C00E94DA073CC186E0A7
S113185090E0909351018093500180915D01882321
S113186009F439C08091D3018823A9F5898185FFC2
S113187032C08F814E812FB7F894332760916E0167
S113188070916F012FBF9927982F88275527842B94
S1131890952B8617970759F08F812E819927982FBA
S11318A088273327822B932B8F5F9F4FA1F4898145
S11318B08770813081F4C09AC0988AE00E94CE0576
S11318C0C09AC0984091520147502896BE018FE3B8
S11318D00E94E905F8C040915201475055272896C7
S11318E0BE01A6CFC09A80915601882339F484E0C2
S11318F00E94570780915601882311F0B7990AC0B6
S11319000E9B08C090913902992321F080915201D5
S11319108B3038F480912401909125010E941202A9
S11319203DC0913001F5E0913D02FF27EE0FFF1F0E
S1131930EE0FFF1FEB51FE4F208131814281538115
S1131940E0912401F091250121ABBB27A52F942F11
S1131950832F80ABCA01AA27BB2787A7252F33274C
S11319604427552726A780913D029927019668E0D0
S113197070E00E94821880933D0280913902815068
S113198080933902882351F080912401909125019C
S11319900E94120210923D0210923902809152016B
S11319A0FE01E80FF11D808187FF31C0012B79F121
S11319B069816770E0912401F0912501623019F585
S11319C0A0915E01B0915F01109709F180911E0111
S11319D090911F010797D9F4ED019B81838198179A
S11319E0B1F487B78F7E87BF908181E08CA7E90F20
S11319F0F11D8291319688A780818F7789A780E035
S1131A000E94280B04C0613011F48BE02AC00E94AC
S1131A10A50759C010925A01C09A84E00E94570742
S1131A2052C08E3309F04FC0C09A80911E0190912C
S1131A301F010897C9F4C09889E00E94CE05C09A96
S1131A4083E00E94570781E090E090931F01809308
S1131A501E018FB7F894992723E0209318018FBFB4
S1131A6084E00E943D012FC080914902882349F4FB
S1131A7084E090E090931F0180931E010E94690B03
S1131A8022C083E00E94570783E090E090931F01F7
S1131A9080931E010E942102DC01CB0166E371E008
S1131AA00E946E18ABE0EA2EF12CE80EF91EF092BB
S1131AB03A01E09239010E94A10200271127A801EE
S1131AC097010E945E03DF91CF911F910F91FF90C8
S1131AD0EF9008951F920F920FB60F9211242F9337
S1131AE03F934F935F936F937F938F939F93AF93A2
S1131AF0BF93EF93FF932FB1E0919301F091940181
S1131B00309739F080917B0190917C01E80FF91FA7
S1131B10208380917B0190917C01019690937C01BC
S1131B2080937B0180E00E94E50040912601509162
S1131B30270180917B0190917C018417950718F40B
S1131B400E9470011CC06091930170919401809176
S1131B5043029091440210929401109293011092C6
S1131B60440210924302109227011092260110920F
S1131B707C0110927B012FB120E00E94C40BFF91E5
S1131B80EF91BF91AF919F918F917F916F915F91F1
S1131B904F913F912F910F900FBE0F901F9018956A
S1131BA078941F920F920FB60F9211242F923F92A6
S1131BB04F925F926F927F928F929F92AF92BF9259
S1131BC0CF92DF92EF92FF920F931F932F933F9345
S1131BD04F935F936F937F938F939F93AF93BF9331
S1131BE0CF93DF93EF93FF93C6B5D7B58FB7F89430
S1131BF0282E0E94A1029B012C1B3D0B4427552734
S1131C002B013C01421A530A640A750A80911E0191
S1131C1090911F018530910521F0069709F0E0C0ED
S1131C20BFC086E090E090931F0180931E0131E0D5
S1131C30332E309259011092200180E00E947903E2
S1131C40E0915E01F0915F0141AABB27A72D962D7B
S1131C50852D80ABC301AA27BB2787A7872D99278A
S1131C60AA27BB2786A7E0915E01F0915F0185A5B5
S1131C70882309F484C06081655077274F01860E5C
S1131C80971EF4012081E1808281A3809927AA27ED
S1131C90BB27BA2FA92F982F8827332744275527E6
S1131CA0522F442733272227FF2400271127870197
S1131CB0FF24EE242E293F29402B512BBB24CC2476
S1131CC0DD242A293B294C295D29822B932BA42B23
S1131CD0B52B84199509A609B7098383292F3A2FAF
S1131CE04B2F552722839D014427552721838B2F72
S1131CF09927AA27BB278083C09824E0A40180E009
S1131D0090E00E947A06C09AF4012081E1808281E9
S1131D10A3809927AA27BB27BA2FA92F982F8827F2
S1131D20332744275527522F442733272227FF24BC
S1131D30002711278701FF24EE242E293F29402B59
S1131D40512BBB24CC24DD242A293B294C295D2991
S1131D50822B932BA42BB52B840D951DA61DB71D8B
S1131D608383292F3A2F4B2F552722839D01442704
S1131D70552721838B2F9927AA27BB278083E0919E
S1131D805E01F0915F01818185FF02C030924001C4
S1131D9083E00E94570787B78F7E87BF84997AC0F4
S1131DA01092590181E00E947903E0915E01F09163
S1131DB05F01818185FF0FC087E090E090931F0150
S1131DC080931E010E94A10220E031E040E050E037
S1131DD00E945E0303C080E00E94280B849B5AC0CB
S1131DE080912001882391F580915901882371F510
S1131DF011E0109359010E94790380B320913902B4
S1131E00283098F4E0913D02E20FFF27E770F0706C
S1131E10EE0FFF1FEE0FFF1FEB51FE4F408251826A
S1131E20628273822F5F2093390210932001D09332
S1131E307501C093740184992DC0992764E0969527
S1131E4087956A95E1F7182F117001C010E0809111
S1131E5059018130F9F4109259010E9479031092CA
S1131E6020011123B9F48091740190917501C81B6C
S1131E70D90B2A9778F480913902882319F081507C
S1131E808093390280915E0190915F01009711F077
S1131E900E9412022FBEFF91EF91DF91CF91BF916B
S1131EA0AF919F918F917F916F915F914F913F91EE
S1131EB02F911F910F91FF90EF90DF90CF90BF90E3
S1131EC0AF909F908F907F906F905F904F903F90D6
S1131ED02F900F900FBE0F901F90189578941F921B
S1131EE00F920FB60F9211241F932F933F934F938A
S1131EF05F936F937F938F939F93AF93BF93EF936E
S1131F00FF9387B78F7E87BF78941FB7F89480912B
S1131F10650190916601A0916701B09168010097F5
S1131F20A105B10509F051C080911E0190911F01D6
S1131F308530910561F18630910530F48330910547
S1131F4049F0049781F51AC087309105F1F008979C
S1131F5051F514C0869B0FC084E090E090931F015C
S1131F6080931E010E94A10227E030E040E050E08F
S1131F700E945E0318C00E943F0B15C00E94BF055B
S1131F80882389F40E94690B0EC080E00AC089E0AE
S1131F900E94CE0581E00E94790383E00E945707E6
S1131FA087E00E94280B8091190190911A010197F2
S1131FB071F482E090E090931A0180931901DE9805
S1131FC0DE9A80E00E94670502C00E94BE02812F53
S1131FD099278FBFFF91EF91BF91AF919F918F91FF
S1131FE07F916F915F914F913F912F911F910F902E
S1131FF00FBE0F901F90189561E081E00E94B4001D
S11320008823E9F48FB7F894282F33278091190196
S113201090911A01892B11F02FBF20C081E090E02C
S113202090931A01809319012FBFDD9A0E94A10297
S113203024E130E040E050E00E945E030FC062E023
S113204081E00E94CE00882319F089E090E0089591
S113205061E081E00E94CE00882319F080E090E0E6
S1132060089585E090E00895AF92BF92CF92DF92F9
S1132070EF92FF920F931F93CF93DF93CDB7DEB709
S1132080A8970FB6F894DEBF0FBECDBF873009F412
S1132090CAC1883098F4833009F44CC1843038F4D0
S11320A0813009F45BC0823008F0DBC024C0853085
S11320B009F497C1863008F0AFC142C18B3009F4EE
S11320C0DFC28C3038F4893009F4A3C28A3008F0B6
S11320D0C3C2E4C18D3039F08D3008F433C48E307E
S11320E009F088C47AC480913E02882309F482C42A
S11320F090E011E050C480915301882361F5209150
S1132100E1013091E2014091E3015091E401EFB724
S1132110F894FF276091CA017091CB018091CC01A2
S11321209091CD01E0903B01F0903C0100913D0184
S113213010913E016E0D7F1D801F911FEFBF2093F4
S1132140E1013093E2014093E3015093E4011092E2
S113215053010E944D040E948C036EC00E948C03A4
S11321605B016C018FB7F894992710927A018FBFA5
S11321708091890181FF25C0809181019091820124
S1132180A0918301B0918401A6019501281B390B0C
S11321904A0B5B0BE0908501F0908601009187016A
S11321A010918801E21AF30A040B150B3FEFE316B2
S11321B03FEFF3063FEF03073FE7130711F061E03A
S11321C009C07FEFE72E7FEFF72E7FEF072F7FE722
S11321D0172F60E08091920181FF24C080918A01D1
S11321E090918B01A0918C01B0918D01A601950174
S11321F0281B390B4A0B5B0BDA01C90120918E01B4
S113220030918F014091900150919101281B390B1D
S11322104A0B5B0B2E153F05400751071CF479014F
S11322208A0103C0662309F4E5C31E141F041006C3
S113223011062CF0C601B5010E94500ADBC3E092DE
S1132240E101F092E2010093E3011093E40181E0E3
S113225080935301A8019701C601B5010E944D0462
S1132260C9C30FB7F894112781E00E94790361E094
S1132270E62EF12CF0921F01E0921E011092200133
S113228010924001109254010FBF0FB7F894112718
S11322900E940602F0925101E092500110925A01FC
S11322A089B78F7B89BF80E488BF8AB780628ABF81
S11322B08AB78F7E8ABF89B7806489BF0FBF8FB703
S11322C0F894082F11278091190190911A0104970D
S11322D019F483E00E94CE050FBF0FB7F8941127BD
S11322E0C09A80E00E9457070FBF8FB7F8949927D0
S11322F022E02093CF018FBF0E948C036093810161
S113230070938201809383019093840188EE93E01B
S1132310A0E0B0E08093850190938601A0938701AB
S1132320B0938801809189018E7F826080938901B6
S113233081E0B1C08FB7F89499271092CF0171C092
S11323408FB7F8949927F09018018FBF63E081E06C
S11323500E94CE00882359F10FB7F89411271092E8
S11323601F0110921E0187B78F7E87BF87B78F7DAD
S113237087BF83E00E945707C09A0FBF0FB7F89436
S1132380112710925101109250010E940602C09A26
S113239089B78F7B89BF0FBF10921A011092190160
S11323A0DE98DD98DE9A83E00E943D0107C08FB776
S11323B0F894992722E02093CF018FBF00917801F0
S11323C0109179010E94FF0180913F029091400297
S11323D0892B09F00FC38FEF809309014F2DB801AA
S11323E0D1C28FB7F894282F3327122F8091470238
S11323F0882309F581E08093470280911901909127
S11324001A01049721F481E00E94670503C086E065
S11324100E943D011FBFEEC28FB7F8949927109216
S113242047028FBFE7C28FB7F894282F33278091D4
S11324301B01882311F02FBFDDC22FBF80B3992762
S113244056E0969587955A95E1F7182F117090915B
S11324507001809171018917D9F01917C9F484E0CA
S113246090E090931A01809319018FB7F8949927FB
S113247021E020931B018FBF60E070E08DE10E949A
S1132480EB070E94BB06C09AC09882E00E943D01FF
S11324901093710187E00E943D01ACC28FB7F8949C
S11324A09927109102018FBF123009F465C01330CF
S11324B030F4112359F0113009F09CC248C0133094
S11324C009F474C0143009F095C2A0C0C0988FB745
S11324D0F894082F11278091190190911A010297FD
S11324E0A1F583E090E090931A018093190168E1CB
S11324F070E08DE10E94EB0781E0809370011092FF
S11325001B0180B3992746E0969587954A95E1F794
S1132510817090708093710187E00E943D0181E099
S11325200E94CE056FE772E08CE10E94EB070E94E7
S11325304C080E94120866E57AE287E10E94EB07E4
S11325406FEF70E885E10E94EB070FBF53C2C0989C
S113255086E00E94CE050E944C080E9412080E9448
S1132560BB06C09AC09883E00E94CE05C09A81E061
S11325700E94570786E08FCFC0988FB7F894082F32
S1132580112760E080E00E94CE00882311F00FBF85
S11325900AC00FBF83E50E94640180E00E946401C9
S11325A080E00E946401C09A82E02DC08FB7F89445
S11325B0992720911E018FBF243039F0283041F033
S11325C0223001F50E945D0815C20E94690B12C2F7
S11325D0C09889E00E94CE05C09A83E00E94570704
S11325E08FB7F894992721E030E030931F012093AE
S11325F01E018FBF8FB7F8949927109318018FBFCE
S113260084E049CF83E00E945707F4C10E941B066F
S1132610F1C10FB7F8941127409126015091270179
S113262060919301709194018091430290914402CE
S1132630109294011092930110924402109243025A
S1132640109227011092260110927C0110927B01B6
S113265020E00E94C40B79CF2FB7F89433278091E0
S113266057018093050182E080931D012FBF809163
S11326700501882309F0BEC1B89AC09888E00BCF41
S1132680A0912401B09125011C919D01210F311DC0
S1132690F9018081881F8827881FFD0183A7F9011C
S11326A080818F77FD0181A721503040F90180811D
S11326B0FD0180A7A0912401B0912501FD01328183
S11326C08FB7F8949927209155018FBF222309F4DD
S11326D090C0832F992796958795969587958370B3
S11326E090708230910541F5878146812FB7F89427
S11326F0332760916E0170916F012FBF9927982F36
S113270088275527842B952B8617970719F481E082
S113271090E06CC0FD018781268140E050E099275C
S1132720982F88273327822B932B8F5F9F4F11F489
S113273041E050E0CA015AC0039709F0FAC09E0173
S11327402F5F3F4F44ED51E088E0FA010190AF0163
S1132750F90101929F018150C1F79E012F5D3F4F06
S1132760AE014F5F5F4F88E0FA010190AF01F901BC
S113277001929F018150C1F79E01275F3F4FAE0137
S11327804F5D5F4F88E0FA010190AF01F9010192BA
S11327909F018150C1F79E012F5E3F4FAE01475FFD
S11327A05F4F88E0FA010190AF01F90101929F01A6
S11327B08150C1F79E01275E3F4FAE014F5E5F4FD0
S11327C088E0FA010190AF01F90101929F01815063
S11327D0C1F748E050E0BE01675E7F4FCD01069629
S11327E00E94EB18892B09F0A4C003C0882309F4C4
S11327F0A0C01D3008F49DC0E0902401F090250194
S1132800F7012281822F992716E0969587951A95CC
S1132810E1F7039719F468E070E002C062E070E049
S1132820822F9927969587959695879583709070B2
S1132830039719F488E090E002C082E090E026E07B
S113284030E0E20EF31E40E050E020E030E0F7011B
S1132850E80FF91F8AEF9FEFE80EF91E05C081917A
S1132860480F511D2F5F3F4F26173707C4F3F70159
S113287063818FEF809341028FB7F894782F20E023
S113288030E0EDE2F1E0808191818417950729F42D
S11328908281861731F1209341022F5F3F4F339697
S11328A02430310581F77FBF909141023FB7F894FE
S11328B09F3F21F0809121018917A9F420912101E2
S11328C0822F9927FC01EE0FFF1FE80FF91FE35D2C
S11328D0FE4F5183408362832F5F23702093210135
S11328E00EC07FBF22C0892F9927FC01EE0FFF1F66
S11328F0E80FF91FE35DFE4F518340836283832F0A
S113290099278FBF0FB7F8941127C7010E94700051
S1132910FC0190810FBFF70183A5882331F09F3319
S113292021F48FB7F89499278FBFF0922501E09294
S113293024018FB7F894992710925A018FBF0E94EF
S1132940A50758C09091640180910901981709F472
S113295051C0909309019923D1F40091220110915F
S1132960230160917601C8010E94A308482F5527CE
S1132970442309F43FC08FEF809309016091220141
S113298070912301F80183850E94410A33C08FEFBF
S1132990809309012FC020913E02812F8223C1F030
S11329A0E92FFF27EE0FFF1FE358FE4F40815181AF
S11329B011821082812F8095282320933E0299232F
S11329C039F463E0CA010E94E209110F91E0E3CFF8
S11329D09F5F983078F4110FDECF80910C01E82FBF
S11329E0FF27EE0FFF1FE358FE4F6081718141E026
S11329F00E94010AA8960FB6F894DEBF0FBECDBFA1
S1132A00DF91CF911F910F91FF90EF90DF90CF90C6
S1132A10BF90AF90089580913A028F3FB1F0282F74
S1132A203327F901EF5BFE4F808180933A028F3F99
S1132A3011F4809348028FEF80832F3F31F0822F6F
S1132A400E94341081E090E0089580E090E00895C1
S1132A501F93CF93DF93CDB7DEB7E0970FB6F8940B
S1132A60DEBF0FBECDBF1FB7F8944FE050E06FEF4D
S1132A7070E081E491E00E94F8188FEF80933A02AD
S1132A808093480281E08EBD88E080BF83E083BFED
S1132A908CB59DB54AE72CB53DB52817390708F420
S1132AA04150442311F0C901F6CF92B782B7891778
S1132AB0E9F32CB53DB592B782B78917E9F38CB524
S1132AC09DB5821B930B4096E5E096958795EA9514
S1132AD0E1F790933C0280933B0213BE83B78EBD13
S1132AE08EB580BF12BE1DBC1CBC8FEF86BF86B7DF
S1132AF080937C0080B7992787709070892BD1F7D9
S1132B00D29AD19AD09ADA9AD99AD89A15BA8FEFDA
S1132B1084BBD498DC981DBC1CBC87B7846087BF79
S1132B208EB5887F84608EBD0E940B158823E1F7E3
S1132B308FEF80935801EDE2F1E08FEF9FEF9183E7
S1132B4080831282339621E0E933F207C1F70E94B1
S1132B5021026093DE0180910001909101010196B0
S1132B60AA27BB278093600190936101A09362011F
S1132B70B093630185E092E0909325018093240152
S1132B808E98B89A8C988FEF809369011092CE0139
S1132B901092CF011092D0011092D101B89AD69A16
S1132BA0D59A8FB7F894992720910601309107019F
S1132BB08FBF30936F0120936E010E94670429A791
S1132BC03AA74BA75CA76DA77EA78FA798ABDE019A
S1132BD09196FE01B99688E001900D928150E1F73B
S1132BE0DE015196FE01B19688E001900D9281506C
S1132BF0E1F7DE015996FE01719688E001900D928D
S1132C008150E1F7A4EDB1E0FE01799688E00190EE
S1132C100D928150E1F780910801992790935C010E
S1132C2080935B018FE18093C9018AE18093DC0189
S1132C300E94670429A73AA74BA75CA76DA77EA7A4
S1132C408FA798ABDE019196FE01B99688E00190BA
S1132C500D928150E1F7DE011196FE01B19688E0F4
S1132C6001900D928150E1F7DE011996FE01319633
S1132C7088E001900D928150E1F7A4EDB1E0FE01EE
S1132C80399688E001900D928150E1F7A4EDB1E00E
S1132C90FD0137969C9180818D939083319781E0DB
S1132CA0E73DF807B9F781E080935501109242029D
S1132CB080935D011092D30180B7886080BF8BE060
S1132CC083BF86EE81BF87B7826087BF0E94CA0335
S1132CD00E940B158823E1F7812F99278FBF7894E1
S1132CE00E94FC0F1092E0011092DF018FB7F8945C
S1132CF0482F55274BC087B7992783709070892B2D
S1132D0019F4E5E0F0E013C080B79927877090705C
S1132D10892BD1F781B792B7891B8C3030F082B7F9
S1132D20853F18F4E3E0F0E002C0E2E0F0E087B7AA
S1132D30887BC1F480917D008B7FA1F46E9912C0D1
S1132D408AB190919A00892B887161F48091740002
S1132D5082FD08C0379B03C081E090E005C085E098
S1132D6090E002C080E090E025B78E1708F4E82FC9
S1132D70FF27E457FF4FE491237E2062E22BE5BF57
S1132D8078948895F89485B78F7D85BF80913A02B1
S1132D908F3F09F4B0CF282F3327F901EF5BFE4FA3
S1132DA0808180933A028F3F11F4809348028FEF21
S1132DB080832F3F09F49FCF4FBF822F0E9434108E
S1132DC095CFACE2B0E0E7EEF6E10C94B418222E15
S1132DD0332E442E552E662E772E882E992EFE01E4
S1132DE03196A8E01192AA95E9F729823A824B829A
S1132DF05C826D827E828F829886FE013996B8E06D
S1132E001192BA95E9F7A986BA86CB86DC86ED8657
S1132E10FE860F87188B89819A81AB81BC8189A733
S1132E209AA7ABA7BCA77C018D018FEF9FEFA0E011
S1132E30B0E0E822F9220A231B2389A59AA5ABA5B1
S1132E40BCA51D014424552489859A85AB85BC8580
S1132E508DA39EA3AFA3B8A75C016D018FEF9FEF75
S1132E60A0E0B0E0A822B922CA22DB228DA19EA153
S1132E70AFA1B8A53D0188249924C801B701A601D2
S1132E8095010E94951869A37AA38BA39CA3C801FA
S1132E90B701A40193010E9495187B018C01C20122
S1132EA0B101A60195010E9495185B016C01C20154
S1132EB0B101A40193010E9495183B014C01EA0C55
S1132EC0FB1C0C1D1D1D89A19AA1ABA1BCA19D01D8
S1132ED0442755272E0D3F1D401F511F2A153B0522
S1132EE04C055D0540F480E090E0A1E0B0E0680EA0
S1132EF0791E8A1E9B1ECA01AA27BB27860D971D11
S1132F00A81DB91D8D8F9E8FAF8FB8A3A90133273C
S1132F10222789A19AA1ABA1BCA1A070B070280FEF
S1132F20391F4A1F5B1F298F3A8F4B8F5C8FA98CE7
S1132F30BA8CCB8CDC8CED8CFE8C0F8D18A1FE0131
S1132F40719698E011929A95E9F7ED8AFE8A0F8BB3
S1132F50188F2D813E814F8158856DA17EA18FA14F
S1132F6098A50E9495183B014C012D853E854F85FF
S1132F70588969A57AA58BA59CA50E9495182D89C9
S1132F803E894F89588D260F371F481F591F260D1C
S1132F90371D481D591D2D8B3E8B4F8B588F6D88C7
S1132FA07E888F88988C2A2D3B2D4C2D5D2D662D87
S1132FB0772D882D992DE2E1AC960C94D018A0E1E0
S1132FC0B0E0E5EEF7E10C94B418222E332E442E33
S1132FD0552E662E772E882E992E002309F466C06E
S1132FE088E0FE01319611928A95E9F729833A83A4
S1132FF04B835C836D837E838F829887E0E2E01B42
S11330001E16CCF52D813E814F815885602F772780
S113301067FD7095DA01C901062E04C0B695A7951F
S1133020979587950A94D2F78D879E87AF87B88B3B
S113303004C0220F331F441F551FEA95D2F789811C
S11330409A81AB81BC8104C0B695A7959795879565
S11330506A95D2F7282B392B4A2B5B2B29873A8781
S11330604B875C8729843A844B845C846D847E849A
S11330708F8498881BC01D861E861F86188A2E2F53
S1133080332727FD3095309521953F4F8D819E81C3
S1133090AF81B88504C0B695A795979587952A956D
S11330A0D2F789879A87AB87BC87DCCF222D332D53
S11330B0442D552D662D772D882D992DE2E16096AE
S11330C00C94D018991B79E004C0991F961708F046
S11330D0961B881F7A95C9F780950895AA1BBB1B78
S11330E051E107C0AA1FBB1FA617B70710F0A61B04
S11330F0B70B881F991F5A95A9F780959095BC0125
S1133100CD01089597FB092E07260AD077FD04D038
S1133110E5DF06D000201AF4709561957F4F08957D
S1133120F6F7909581959F4F0895629FD001739F04
S1133130F001829FE00DF11D649FE00DF11D929F4F
S1133140F00D839FF00D749FF00D659FF00D99278E
S1133150729FB00DE11DF91F639FB00DE11DF91FB2
S1133160BD01CF01112408952F923F924F925F9297
S11331706F927F928F929F92AF92BF92CF92DF9283
S1133180EF92FF920F931F93CF93DF93CDB7DEB7E8
S1133190CA1BDB0B0FB6F894DEBF0FBECDBF09947C
S11331A02A88398848885F846E847D848C849B84D3
S11331B0AA84B984C884DF80EE80FD800C811B81E1
S11331C0AA81B981CE0FD11D0FB6F894DEBF0FBE10
S11331D0CDBFED010895FB01DC0104C08D91019088
S11331E0801921F441505040C8F7881B990B089569
S11331F0DC0101C06D9341505040E0F70895FFCFCA
S11332000100FFFFFFFF010022FFFFFF010000029A
S10B32100004000600080000A0
S9030000FC
